{
  "address": "0xe118a60131084aDD6c9af7Cc11e856625640F28a",
  "abi": [
    {
      "inputs": [
        {
          "internalType": "address",
          "name": "exampleExternalContractAddress",
          "type": "address"
        }
      ],
      "stateMutability": "nonpayable",
      "type": "constructor"
    },
    {
      "anonymous": false,
      "inputs": [
        {
          "indexed": true,
          "internalType": "address",
          "name": "from",
          "type": "address"
        },
        {
          "indexed": false,
          "internalType": "uint256",
          "name": "value",
          "type": "uint256"
        }
      ],
      "name": "Stake",
      "type": "event"
    },
    {
      "stateMutability": "payable",
      "type": "fallback"
    },
    {
      "inputs": [
        {
          "internalType": "address",
          "name": "",
          "type": "address"
        }
      ],
      "name": "balances",
      "outputs": [
        {
          "internalType": "uint256",
          "name": "",
          "type": "uint256"
        }
      ],
      "stateMutability": "view",
      "type": "function"
    },
    {
      "inputs": [],
      "name": "deadline",
      "outputs": [
        {
          "internalType": "uint256",
          "name": "",
          "type": "uint256"
        }
      ],
      "stateMutability": "view",
      "type": "function"
    },
    {
      "inputs": [],
      "name": "exampleExternalContract",
      "outputs": [
        {
          "internalType": "contract ExampleExternalContract",
          "name": "",
          "type": "address"
        }
      ],
      "stateMutability": "view",
      "type": "function"
    },
    {
      "inputs": [],
      "name": "execute",
      "outputs": [],
      "stateMutability": "nonpayable",
      "type": "function"
    },
    {
      "inputs": [],
      "name": "stake",
      "outputs": [],
      "stateMutability": "payable",
      "type": "function"
    },
    {
      "inputs": [],
      "name": "threshold",
      "outputs": [
        {
          "internalType": "uint256",
          "name": "",
          "type": "uint256"
        }
      ],
      "stateMutability": "view",
      "type": "function"
    },
    {
      "inputs": [],
      "name": "timeLeft",
      "outputs": [
        {
          "internalType": "uint256",
          "name": "",
          "type": "uint256"
        }
      ],
      "stateMutability": "view",
      "type": "function"
    },
    {
      "inputs": [],
      "name": "withdraw",
      "outputs": [],
      "stateMutability": "nonpayable",
      "type": "function"
    },
    {
      "stateMutability": "payable",
      "type": "receive"
    }
  ],
  "transactionHash": "0x1a8a0fc0f364117e3501e65a6300175526cac32e8a5ef801d1df4eaa7caf7744",
  "args": [
    "0x7ef3E924803362cAf0f73916e4Ff45e529834178"
  ],
  "numDeployments": 1,
  "solcInputHash": "1adbb77afe63e6568608b63955186834",
  "bytecode": "0x6080604052610011426203f480610092565b60025534801561002057600080fd5b5060405161083a38038061083a83398101604081905261003f91610064565b600080546001600160a01b0319166001600160a01b03929092169190911790556100b6565b600060208284031215610075578081fd5b81516001600160a01b038116811461008b578182fd5b9392505050565b600082198211156100b157634e487b7160e01b81526011600452602481fd5b500190565b610775806100c56000396000f3fe60806040526004361061007f5760003560e01c80633ccfd60b1161004e5780633ccfd60b1461010157806342cde4e81461011657806361461954146101325780639f75f227146101475761008e565b80631300a6d11461009657806327e235e3146100be57806329dcb0cf146100eb5780633a4b66f11461008e5761008e565b3661008e5761008c61017f565b005b61008c61017f565b3480156100a257600080fd5b506100ab6102f8565b6040519081526020015b60405180910390f35b3480156100ca57600080fd5b506100ab6100d9366004610630565b60016020526000908152604090205481565b3480156100f757600080fd5b506100ab60025481565b34801561010d57600080fd5b5061008c61031c565b34801561012257600080fd5b506100ab670de0b6b3a764000081565b34801561013e57600080fd5b5061008c610459565b34801561015357600080fd5b50600054610167906001600160a01b031681565b6040516001600160a01b0390911681526020016100b5565b60008054906101000a90046001600160a01b03166001600160a01b0316639d9a7fe96040518163ffffffff1660e01b815260040160206040518083038186803b1580156101cb57600080fd5b505afa1580156101df573d6000803e3d6000fd5b505050506040513d601f19601f82011682018060405250810190610203919061065e565b156102295760405162461bcd60e51b8152600401610220906106d1565b60405180910390fd5b6000341161026b5760405162461bcd60e51b815260206004820152600f60248201526e139bc81b5bdb995e481cd95b991959608a1b6044820152606401610220565b336000908152600160205260408120805434929061028a9084906106fa565b90915550506040805180820190915260128152711cdd185ad9481858d8dbdb5c1b1a5cda195960721b60208201526102c1906105c5565b60405134815233907febedb8b3c678666e7f36970bc8f57abf6d8fa2e828c0da91ea5b75bf68ed101a9060200160405180910390a2565b600042600254116103095750600090565b426002546103179190610712565b905090565b60008054906101000a90046001600160a01b03166001600160a01b0316639d9a7fe96040518163ffffffff1660e01b815260040160206040518083038186803b15801561036857600080fd5b505afa15801561037c573d6000803e3d6000fd5b505050506040513d601f19601f820116820180604052508101906103a0919061065e565b156103bd5760405162461bcd60e51b8152600401610220906106d1565b60035460ff1661040f5760405162461bcd60e51b815260206004820152601860248201527f57697468647261777320617265206e6f74206f70656e656400000000000000006044820152606401610220565b3360008181526001602052604080822054905181156108fc0292818181858888f19350505050158015610446573d6000803e3d6000fd5b5033600090815260016020526040812055565b60008054906101000a90046001600160a01b03166001600160a01b0316639d9a7fe96040518163ffffffff1660e01b815260040160206040518083038186803b1580156104a557600080fd5b505afa1580156104b9573d6000803e3d6000fd5b505050506040513d601f19601f820116820180604052508101906104dd919061065e565b156104fa5760405162461bcd60e51b8152600401610220906106d1565b600254421161053e5760405162461bcd60e51b815260206004820152601060248201526f111958591b1a5b99481b9bdd081b595d60821b6044820152606401610220565b670de0b6b3a764000047106105b65760008054906101000a90046001600160a01b03166001600160a01b031663522e1177476040518263ffffffff1660e01b81526004016000604051808303818588803b15801561059b57600080fd5b505af11580156105af573d6000803e3d6000fd5b5050505050565b6003805460ff19166001179055565b610608816040516024016105d9919061067e565b60408051601f198184030181529190526020810180516001600160e01b031663104c13eb60e21b17905261060b565b50565b6106088160006a636f6e736f6c652e6c6f679050600080835160208501845afa505050565b600060208284031215610641578081fd5b81356001600160a01b0381168114610657578182fd5b9392505050565b60006020828403121561066f578081fd5b81518015158114610657578182fd5b6000602080835283518082850152825b818110156106aa5785810183015185820160400152820161068e565b818111156106bb5783604083870101525b50601f01601f1916929092016040019392505050565b6020808252600f908201526e14dd185ad94818dbdb5c1b195d1959608a1b604082015260600190565b6000821982111561070d5761070d610729565b500190565b60008282101561072457610724610729565b500390565b634e487b7160e01b600052601160045260246000fdfea2646970667358221220652abddd13542e060343ceb99dfc6f64e505688cb22cd9da5b19eed3ef4c8e9664736f6c63430008040033",
  "devdoc": {
    "kind": "dev",
    "methods": {},
    "version": 1
  },
  "userdoc": {
    "kind": "user",
    "methods": {},
    "version": 1
  },
  "storageLayout": {
    "storage": [
      {
        "astId": 19,
        "contract": "contracts/Staker.sol:Staker",
        "label": "exampleExternalContract",
        "offset": 0,
        "slot": "0",
        "type": "t_contract(ExampleExternalContract)12"
      },
      {
        "astId": 23,
        "contract": "contracts/Staker.sol:Staker",
        "label": "balances",
        "offset": 0,
        "slot": "1",
        "type": "t_mapping(t_address,t_uint256)"
      },
      {
        "astId": 32,
        "contract": "contracts/Staker.sol:Staker",
        "label": "deadline",
        "offset": 0,
        "slot": "2",
        "type": "t_uint256"
      },
      {
        "astId": 34,
        "contract": "contracts/Staker.sol:Staker",
        "label": "openForWithdraw",
        "offset": 0,
        "slot": "3",
        "type": "t_bool"
      }
    ],
    "types": {
      "t_address": {
        "encoding": "inplace",
        "label": "address",
        "numberOfBytes": "20"
      },
      "t_bool": {
        "encoding": "inplace",
        "label": "bool",
        "numberOfBytes": "1"
      },
      "t_contract(ExampleExternalContract)12": {
        "encoding": "inplace",
        "label": "contract ExampleExternalContract",
        "numberOfBytes": "20"
      },
      "t_mapping(t_address,t_uint256)": {
        "encoding": "mapping",
        "key": "t_address",
        "label": "mapping(address => uint256)",
        "numberOfBytes": "32",
        "value": "t_uint256"
      },
      "t_uint256": {
        "encoding": "inplace",
        "label": "uint256",
        "numberOfBytes": "32"
      }
    }
  }
}